{"contracts/Math.sol":{"Math":{"abi":[{"inputs":[],"stateMutability":"nonpayable","type":"constructor"},{"anonymous":false,"inputs":[{"indexed":false,"internalType":"uint256","name":"firstNo","type":"uint256"},{"indexed":false,"internalType":"uint256","name":"secondNo","type":"uint256"},{"indexed":false,"internalType":"uint256","name":"results","type":"uint256"}],"name":"addNumbers","type":"event"},{"inputs":[{"internalType":"uint256","name":"a","type":"uint256"},{"internalType":"uint256","name":"b","type":"uint256"}],"name":"add","outputs":[{"internalType":"string","name":"","type":"string"}],"stateMutability":"nonpayable","type":"function"},{"inputs":[],"name":"owner","outputs":[{"internalType":"address","name":"","type":"address"}],"stateMutability":"view","type":"function"}],"evm":{"bytecode":{"linkReferences":{},"object":"608060405234801561001057600080fd5b5033600160006101000a81548173ffffffffffffffffffffffffffffffffffffffff021916908373ffffffffffffffffffffffffffffffffffffffff1602179055506106b2806100616000396000f3fe608060405234801561001057600080fd5b50600436106100365760003560e01c8063771602f71461003b5780638da5cb5b1461006b575b600080fd5b610055600480360381019061005091906102d5565b610089565b6040516100629190610383565b60405180910390f35b6100736100ed565b6040516100809190610368565b60405180910390f35b60608183610097919061047f565b6000819055507ff1740222bef33175bb191359844f4a38f66967c791d032488a025c86a806c6fe83836000546040516100d2939291906103a5565b60405180910390a16100e5600054610113565b905092915050565b600160009054906101000a900473ffffffffffffffffffffffffffffffffffffffff1681565b6060600082141561015b576040518060400160405280600181526020017f300000000000000000000000000000000000000000000000000000000000000081525090506102bb565b600082905060005b6000821461018d5780806101769061057c565b915050600a82610186919061044e565b9150610163565b60008167ffffffffffffffff8111156101cf577f4e487b7100000000000000000000000000000000000000000000000000000000600052604160045260246000fd5b6040519080825280601f01601f1916602001820160405280156102015781602001600182028036833780820191505090505b5090505b600085146102b45760018261021a91906104d9565b9150600a8561022991906105c5565b603061023591906103f8565b60f81b818381518110610271577f4e487b7100000000000000000000000000000000000000000000000000000000600052603260045260246000fd5b60200101907effffffffffffffffffffffffffffffffffffffffffffffffffffffffffffff1916908160001a905350600a856102ad919061044e565b9450610205565b8093505050505b919050565b6000813590506102cf81610665565b92915050565b600080604083850312156102e857600080fd5b60006102f6858286016102c0565b9250506020610307858286016102c0565b9150509250929050565b61031a8161050d565b82525050565b600061032b826103dc565b61033581856103e7565b9350610345818560208601610549565b61034e81610654565b840191505092915050565b6103628161053f565b82525050565b600060208201905061037d6000830184610311565b92915050565b6000602082019050818103600083015261039d8184610320565b905092915050565b60006060820190506103ba6000830186610359565b6103c76020830185610359565b6103d46040830184610359565b949350505050565b600081519050919050565b600082825260208201905092915050565b60006104038261053f565b915061040e8361053f565b9250827fffffffffffffffffffffffffffffffffffffffffffffffffffffffffffffffff03821115610443576104426105f6565b5b828201905092915050565b60006104598261053f565b91506104648361053f565b92508261047457610473610625565b5b828204905092915050565b600061048a8261053f565b91506104958361053f565b9250817fffffffffffffffffffffffffffffffffffffffffffffffffffffffffffffffff04831182151516156104ce576104cd6105f6565b5b828202905092915050565b60006104e48261053f565b91506104ef8361053f565b925082821015610502576105016105f6565b5b828203905092915050565b60006105188261051f565b9050919050565b600073ffffffffffffffffffffffffffffffffffffffff82169050919050565b6000819050919050565b60005b8381101561056757808201518184015260208101905061054c565b83811115610576576000848401525b50505050565b60006105878261053f565b91507fffffffffffffffffffffffffffffffffffffffffffffffffffffffffffffffff8214156105ba576105b96105f6565b5b600182019050919050565b60006105d08261053f565b91506105db8361053f565b9250826105eb576105ea610625565b5b828206905092915050565b7f4e487b7100000000000000000000000000000000000000000000000000000000600052601160045260246000fd5b7f4e487b7100000000000000000000000000000000000000000000000000000000600052601260045260246000fd5b6000601f19601f8301169050919050565b61066e8161053f565b811461067957600080fd5b5056fea26469706673582212205b901d6e5588a4011e822229058b54272cb2188f16b54de89c5cac52751616da64736f6c63430008000033","opcodes":"PUSH1 0x80 PUSH1 0x40 MSTORE CALLVALUE DUP1 ISZERO PUSH2 0x10 JUMPI PUSH1 0x0 DUP1 REVERT JUMPDEST POP CALLER PUSH1 0x1 PUSH1 0x0 PUSH2 0x100 EXP DUP2 SLOAD DUP2 PUSH20 0xFFFFFFFFFFFFFFFFFFFFFFFFFFFFFFFFFFFFFFFF MUL NOT AND SWAP1 DUP4 PUSH20 0xFFFFFFFFFFFFFFFFFFFFFFFFFFFFFFFFFFFFFFFF AND MUL OR SWAP1 SSTORE POP PUSH2 0x6B2 DUP1 PUSH2 0x61 PUSH1 0x0 CODECOPY PUSH1 0x0 RETURN INVALID PUSH1 0x80 PUSH1 0x40 MSTORE CALLVALUE DUP1 ISZERO PUSH2 0x10 JUMPI PUSH1 0x0 DUP1 REVERT JUMPDEST POP PUSH1 0x4 CALLDATASIZE LT PUSH2 0x36 JUMPI PUSH1 0x0 CALLDATALOAD PUSH1 0xE0 SHR DUP1 PUSH4 0x771602F7 EQ PUSH2 0x3B JUMPI DUP1 PUSH4 0x8DA5CB5B EQ PUSH2 0x6B JUMPI JUMPDEST PUSH1 0x0 DUP1 REVERT JUMPDEST PUSH2 0x55 PUSH1 0x4 DUP1 CALLDATASIZE SUB DUP2 ADD SWAP1 PUSH2 0x50 SWAP2 SWAP1 PUSH2 0x2D5 JUMP JUMPDEST PUSH2 0x89 JUMP JUMPDEST PUSH1 0x40 MLOAD PUSH2 0x62 SWAP2 SWAP1 PUSH2 0x383 JUMP JUMPDEST PUSH1 0x40 MLOAD DUP1 SWAP2 SUB SWAP1 RETURN JUMPDEST PUSH2 0x73 PUSH2 0xED JUMP JUMPDEST PUSH1 0x40 MLOAD PUSH2 0x80 SWAP2 SWAP1 PUSH2 0x368 JUMP JUMPDEST PUSH1 0x40 MLOAD DUP1 SWAP2 SUB SWAP1 RETURN JUMPDEST PUSH1 0x60 DUP2 DUP4 PUSH2 0x97 SWAP2 SWAP1 PUSH2 0x47F JUMP JUMPDEST PUSH1 0x0 DUP2 SWAP1 SSTORE POP PUSH32 0xF1740222BEF33175BB191359844F4A38F66967C791D032488A025C86A806C6FE DUP4 DUP4 PUSH1 0x0 SLOAD PUSH1 0x40 MLOAD PUSH2 0xD2 SWAP4 SWAP3 SWAP2 SWAP1 PUSH2 0x3A5 JUMP JUMPDEST PUSH1 0x40 MLOAD DUP1 SWAP2 SUB SWAP1 LOG1 PUSH2 0xE5 PUSH1 0x0 SLOAD PUSH2 0x113 JUMP JUMPDEST SWAP1 POP SWAP3 SWAP2 POP POP JUMP JUMPDEST PUSH1 0x1 PUSH1 0x0 SWAP1 SLOAD SWAP1 PUSH2 0x100 EXP SWAP1 DIV PUSH20 0xFFFFFFFFFFFFFFFFFFFFFFFFFFFFFFFFFFFFFFFF AND DUP2 JUMP JUMPDEST PUSH1 0x60 PUSH1 0x0 DUP3 EQ ISZERO PUSH2 0x15B JUMPI PUSH1 0x40 MLOAD DUP1 PUSH1 0x40 ADD PUSH1 0x40 MSTORE DUP1 PUSH1 0x1 DUP2 MSTORE PUSH1 0x20 ADD PUSH32 0x3000000000000000000000000000000000000000000000000000000000000000 DUP2 MSTORE POP SWAP1 POP PUSH2 0x2BB JUMP JUMPDEST PUSH1 0x0 DUP3 SWAP1 POP PUSH1 0x0 JUMPDEST PUSH1 0x0 DUP3 EQ PUSH2 0x18D JUMPI DUP1 DUP1 PUSH2 0x176 SWAP1 PUSH2 0x57C JUMP JUMPDEST SWAP2 POP POP PUSH1 0xA DUP3 PUSH2 0x186 SWAP2 SWAP1 PUSH2 0x44E JUMP JUMPDEST SWAP2 POP PUSH2 0x163 JUMP JUMPDEST PUSH1 0x0 DUP2 PUSH8 0xFFFFFFFFFFFFFFFF DUP2 GT ISZERO PUSH2 0x1CF JUMPI PUSH32 0x4E487B7100000000000000000000000000000000000000000000000000000000 PUSH1 0x0 MSTORE PUSH1 0x41 PUSH1 0x4 MSTORE PUSH1 0x24 PUSH1 0x0 REVERT JUMPDEST PUSH1 0x40 MLOAD SWAP1 DUP1 DUP3 MSTORE DUP1 PUSH1 0x1F ADD PUSH1 0x1F NOT AND PUSH1 0x20 ADD DUP3 ADD PUSH1 0x40 MSTORE DUP1 ISZERO PUSH2 0x201 JUMPI DUP2 PUSH1 0x20 ADD PUSH1 0x1 DUP3 MUL DUP1 CALLDATASIZE DUP4 CALLDATACOPY DUP1 DUP3 ADD SWAP2 POP POP SWAP1 POP JUMPDEST POP SWAP1 POP JUMPDEST PUSH1 0x0 DUP6 EQ PUSH2 0x2B4 JUMPI PUSH1 0x1 DUP3 PUSH2 0x21A SWAP2 SWAP1 PUSH2 0x4D9 JUMP JUMPDEST SWAP2 POP PUSH1 0xA DUP6 PUSH2 0x229 SWAP2 SWAP1 PUSH2 0x5C5 JUMP JUMPDEST PUSH1 0x30 PUSH2 0x235 SWAP2 SWAP1 PUSH2 0x3F8 JUMP JUMPDEST PUSH1 0xF8 SHL DUP2 DUP4 DUP2 MLOAD DUP2 LT PUSH2 0x271 JUMPI PUSH32 0x4E487B7100000000000000000000000000000000000000000000000000000000 PUSH1 0x0 MSTORE PUSH1 0x32 PUSH1 0x4 MSTORE PUSH1 0x24 PUSH1 0x0 REVERT JUMPDEST PUSH1 0x20 ADD ADD SWAP1 PUSH31 0xFFFFFFFFFFFFFFFFFFFFFFFFFFFFFFFFFFFFFFFFFFFFFFFFFFFFFFFFFFFFFF NOT AND SWAP1 DUP2 PUSH1 0x0 BYTE SWAP1 MSTORE8 POP PUSH1 0xA DUP6 PUSH2 0x2AD SWAP2 SWAP1 PUSH2 0x44E JUMP JUMPDEST SWAP5 POP PUSH2 0x205 JUMP JUMPDEST DUP1 SWAP4 POP POP POP POP JUMPDEST SWAP2 SWAP1 POP JUMP JUMPDEST PUSH1 0x0 DUP2 CALLDATALOAD SWAP1 POP PUSH2 0x2CF DUP2 PUSH2 0x665 JUMP JUMPDEST SWAP3 SWAP2 POP POP JUMP JUMPDEST PUSH1 0x0 DUP1 PUSH1 0x40 DUP4 DUP6 SUB SLT ISZERO PUSH2 0x2E8 JUMPI PUSH1 0x0 DUP1 REVERT JUMPDEST PUSH1 0x0 PUSH2 0x2F6 DUP6 DUP3 DUP7 ADD PUSH2 0x2C0 JUMP JUMPDEST SWAP3 POP POP PUSH1 0x20 PUSH2 0x307 DUP6 DUP3 DUP7 ADD PUSH2 0x2C0 JUMP JUMPDEST SWAP2 POP POP SWAP3 POP SWAP3 SWAP1 POP JUMP JUMPDEST PUSH2 0x31A DUP2 PUSH2 0x50D JUMP JUMPDEST DUP3 MSTORE POP POP JUMP JUMPDEST PUSH1 0x0 PUSH2 0x32B DUP3 PUSH2 0x3DC JUMP JUMPDEST PUSH2 0x335 DUP2 DUP6 PUSH2 0x3E7 JUMP JUMPDEST SWAP4 POP PUSH2 0x345 DUP2 DUP6 PUSH1 0x20 DUP7 ADD PUSH2 0x549 JUMP JUMPDEST PUSH2 0x34E DUP2 PUSH2 0x654 JUMP JUMPDEST DUP5 ADD SWAP2 POP POP SWAP3 SWAP2 POP POP JUMP JUMPDEST PUSH2 0x362 DUP2 PUSH2 0x53F JUMP JUMPDEST DUP3 MSTORE POP POP JUMP JUMPDEST PUSH1 0x0 PUSH1 0x20 DUP3 ADD SWAP1 POP PUSH2 0x37D PUSH1 0x0 DUP4 ADD DUP5 PUSH2 0x311 JUMP JUMPDEST SWAP3 SWAP2 POP POP JUMP JUMPDEST PUSH1 0x0 PUSH1 0x20 DUP3 ADD SWAP1 POP DUP2 DUP2 SUB PUSH1 0x0 DUP4 ADD MSTORE PUSH2 0x39D DUP2 DUP5 PUSH2 0x320 JUMP JUMPDEST SWAP1 POP SWAP3 SWAP2 POP POP JUMP JUMPDEST PUSH1 0x0 PUSH1 0x60 DUP3 ADD SWAP1 POP PUSH2 0x3BA PUSH1 0x0 DUP4 ADD DUP7 PUSH2 0x359 JUMP JUMPDEST PUSH2 0x3C7 PUSH1 0x20 DUP4 ADD DUP6 PUSH2 0x359 JUMP JUMPDEST PUSH2 0x3D4 PUSH1 0x40 DUP4 ADD DUP5 PUSH2 0x359 JUMP JUMPDEST SWAP5 SWAP4 POP POP POP POP JUMP JUMPDEST PUSH1 0x0 DUP2 MLOAD SWAP1 POP SWAP2 SWAP1 POP JUMP JUMPDEST PUSH1 0x0 DUP3 DUP3 MSTORE PUSH1 0x20 DUP3 ADD SWAP1 POP SWAP3 SWAP2 POP POP JUMP JUMPDEST PUSH1 0x0 PUSH2 0x403 DUP3 PUSH2 0x53F JUMP JUMPDEST SWAP2 POP PUSH2 0x40E DUP4 PUSH2 0x53F JUMP JUMPDEST SWAP3 POP DUP3 PUSH32 0xFFFFFFFFFFFFFFFFFFFFFFFFFFFFFFFFFFFFFFFFFFFFFFFFFFFFFFFFFFFFFFFF SUB DUP3 GT ISZERO PUSH2 0x443 JUMPI PUSH2 0x442 PUSH2 0x5F6 JUMP JUMPDEST JUMPDEST DUP3 DUP3 ADD SWAP1 POP SWAP3 SWAP2 POP POP JUMP JUMPDEST PUSH1 0x0 PUSH2 0x459 DUP3 PUSH2 0x53F JUMP JUMPDEST SWAP2 POP PUSH2 0x464 DUP4 PUSH2 0x53F JUMP JUMPDEST SWAP3 POP DUP3 PUSH2 0x474 JUMPI PUSH2 0x473 PUSH2 0x625 JUMP JUMPDEST JUMPDEST DUP3 DUP3 DIV SWAP1 POP SWAP3 SWAP2 POP POP JUMP JUMPDEST PUSH1 0x0 PUSH2 0x48A DUP3 PUSH2 0x53F JUMP JUMPDEST SWAP2 POP PUSH2 0x495 DUP4 PUSH2 0x53F JUMP JUMPDEST SWAP3 POP DUP2 PUSH32 0xFFFFFFFFFFFFFFFFFFFFFFFFFFFFFFFFFFFFFFFFFFFFFFFFFFFFFFFFFFFFFFFF DIV DUP4 GT DUP3 ISZERO ISZERO AND ISZERO PUSH2 0x4CE JUMPI PUSH2 0x4CD PUSH2 0x5F6 JUMP JUMPDEST JUMPDEST DUP3 DUP3 MUL SWAP1 POP SWAP3 SWAP2 POP POP JUMP JUMPDEST PUSH1 0x0 PUSH2 0x4E4 DUP3 PUSH2 0x53F JUMP JUMPDEST SWAP2 POP PUSH2 0x4EF DUP4 PUSH2 0x53F JUMP JUMPDEST SWAP3 POP DUP3 DUP3 LT ISZERO PUSH2 0x502 JUMPI PUSH2 0x501 PUSH2 0x5F6 JUMP JUMPDEST JUMPDEST DUP3 DUP3 SUB SWAP1 POP SWAP3 SWAP2 POP POP JUMP JUMPDEST PUSH1 0x0 PUSH2 0x518 DUP3 PUSH2 0x51F JUMP JUMPDEST SWAP1 POP SWAP2 SWAP1 POP JUMP JUMPDEST PUSH1 0x0 PUSH20 0xFFFFFFFFFFFFFFFFFFFFFFFFFFFFFFFFFFFFFFFF DUP3 AND SWAP1 POP SWAP2 SWAP1 POP JUMP JUMPDEST PUSH1 0x0 DUP2 SWAP1 POP SWAP2 SWAP1 POP JUMP JUMPDEST PUSH1 0x0 JUMPDEST DUP4 DUP2 LT ISZERO PUSH2 0x567 JUMPI DUP1 DUP3 ADD MLOAD DUP2 DUP5 ADD MSTORE PUSH1 0x20 DUP2 ADD SWAP1 POP PUSH2 0x54C JUMP JUMPDEST DUP4 DUP2 GT ISZERO PUSH2 0x576 JUMPI PUSH1 0x0 DUP5 DUP5 ADD MSTORE JUMPDEST POP POP POP POP JUMP JUMPDEST PUSH1 0x0 PUSH2 0x587 DUP3 PUSH2 0x53F JUMP JUMPDEST SWAP2 POP PUSH32 0xFFFFFFFFFFFFFFFFFFFFFFFFFFFFFFFFFFFFFFFFFFFFFFFFFFFFFFFFFFFFFFFF DUP3 EQ ISZERO PUSH2 0x5BA JUMPI PUSH2 0x5B9 PUSH2 0x5F6 JUMP JUMPDEST JUMPDEST PUSH1 0x1 DUP3 ADD SWAP1 POP SWAP2 SWAP1 POP JUMP JUMPDEST PUSH1 0x0 PUSH2 0x5D0 DUP3 PUSH2 0x53F JUMP JUMPDEST SWAP2 POP PUSH2 0x5DB DUP4 PUSH2 0x53F JUMP JUMPDEST SWAP3 POP DUP3 PUSH2 0x5EB JUMPI PUSH2 0x5EA PUSH2 0x625 JUMP JUMPDEST JUMPDEST DUP3 DUP3 MOD SWAP1 POP SWAP3 SWAP2 POP POP JUMP JUMPDEST PUSH32 0x4E487B7100000000000000000000000000000000000000000000000000000000 PUSH1 0x0 MSTORE PUSH1 0x11 PUSH1 0x4 MSTORE PUSH1 0x24 PUSH1 0x0 REVERT JUMPDEST PUSH32 0x4E487B7100000000000000000000000000000000000000000000000000000000 PUSH1 0x0 MSTORE PUSH1 0x12 PUSH1 0x4 MSTORE PUSH1 0x24 PUSH1 0x0 REVERT JUMPDEST PUSH1 0x0 PUSH1 0x1F NOT PUSH1 0x1F DUP4 ADD AND SWAP1 POP SWAP2 SWAP1 POP JUMP JUMPDEST PUSH2 0x66E DUP2 PUSH2 0x53F JUMP JUMPDEST DUP2 EQ PUSH2 0x679 JUMPI PUSH1 0x0 DUP1 REVERT JUMPDEST POP JUMP INVALID LOG2 PUSH5 0x6970667358 0x22 SLT KECCAK256 JUMPDEST SWAP1 SAR PUSH15 0x5588A4011E822229058B54272CB218 DUP16 AND 0xB5 0x4D 0xE8 SWAP13 0x5C 0xAC MSTORE PUSH22 0x1616DA64736F6C634300080000330000000000000000 "},"methodIdentifiers":{"add(uint256,uint256)":"771602f7","owner()":"8da5cb5b"}}}}}