{
  "_format": "hh-sol-artifact-1",
  "contractName": "FundMe",
  "sourceName": "contracts/FundMe.sol",
  "abi": [
    {
      "inputs": [],
      "stateMutability": "nonpayable",
      "type": "constructor"
    },
    {
      "inputs": [],
      "name": "MINIMUM_USD",
      "outputs": [
        {
          "internalType": "uint256",
          "name": "",
          "type": "uint256"
        }
      ],
      "stateMutability": "view",
      "type": "function"
    },
    {
      "inputs": [],
      "name": "fund",
      "outputs": [],
      "stateMutability": "payable",
      "type": "function"
    },
    {
      "inputs": [
        {
          "internalType": "uint256",
          "name": "",
          "type": "uint256"
        }
      ],
      "name": "funders",
      "outputs": [
        {
          "internalType": "address",
          "name": "",
          "type": "address"
        }
      ],
      "stateMutability": "view",
      "type": "function"
    },
    {
      "inputs": [],
      "name": "i_owner",
      "outputs": [
        {
          "internalType": "address",
          "name": "",
          "type": "address"
        }
      ],
      "stateMutability": "view",
      "type": "function"
    },
    {
      "inputs": [],
      "name": "withdraw",
      "outputs": [],
      "stateMutability": "nonpayable",
      "type": "function"
    }
  ],
  "bytecode": "0x60a060405234801561001057600080fd5b503373ffffffffffffffffffffffffffffffffffffffff1660808173ffffffffffffffffffffffffffffffffffffffff1660601b8152505060805160601c610a8861006d6000396000818161011c01526103ef0152610a886000f3fe60806040526004361061004a5760003560e01c80633ccfd60b1461004f5780636b69a59214610066578063b60d428814610091578063dba6335f1461009b578063dc0d3dff146100c6575b600080fd5b34801561005b57600080fd5b50610064610103565b005b34801561007257600080fd5b5061007b6102e3565b60405161008891906105fc565b60405180910390f35b6100996102f0565b005b3480156100a757600080fd5b506100b06103ed565b6040516100bd9190610658565b60405180910390f35b3480156100d257600080fd5b506100ed60048036038101906100e891906106a4565b610411565b6040516100fa9190610658565b60405180910390f35b3373ffffffffffffffffffffffffffffffffffffffff167f000000000000000000000000000000000000000000000000000000000000000073ffffffffffffffffffffffffffffffffffffffff161461015b57600080fd5b60005b6000805490508110156102065760008082815481106101805761017f6106d1565b5b9060005260206000200160009054906101000a900473ffffffffffffffffffffffffffffffffffffffff1690506000600160008373ffffffffffffffffffffffffffffffffffffffff1673ffffffffffffffffffffffffffffffffffffffff168152602001908152602001600020819055505080806101fe9061072f565b91505061015e565b50600067ffffffffffffffff81111561022257610221610778565b5b6040519080825280602002602001820160405280156102505781602001602082028036833780820191505090505b506000908051906020019061026692919061053c565b5060003373ffffffffffffffffffffffffffffffffffffffff166108fc479081150290604051600060405180830381858888f193505050509050806102e0576040517f08c379a00000000000000000000000000000000000000000000000000000000081526004016102d790610804565b60405180910390fd5b50565b6802b5e3af16b188000081565b6802b5e3af16b188000061030334610450565b1015610344576040517f08c379a000000000000000000000000000000000000000000000000000000000815260040161033b90610870565b60405180910390fd5b6000339080600181540180825580915050600190039060005260206000200160009091909190916101000a81548173ffffffffffffffffffffffffffffffffffffffff021916908373ffffffffffffffffffffffffffffffffffffffff16021790555034600160003373ffffffffffffffffffffffffffffffffffffffff1673ffffffffffffffffffffffffffffffffffffffff16815260200190815260200160002081905550565b7f000000000000000000000000000000000000000000000000000000000000000081565b6000818154811061042157600080fd5b906000526020600020016000915054906101000a900473ffffffffffffffffffffffffffffffffffffffff1681565b60008061045b610484565b9050670de0b6b3a764000083826104729190610890565b61047c9190610919565b915050919050565b600080730715a7794a1dc8e42615f059dd6e406a6594651a905060008173ffffffffffffffffffffffffffffffffffffffff1663feaf968c6040518163ffffffff1660e01b815260040160a06040518083038186803b1580156104e657600080fd5b505afa1580156104fa573d6000803e3d6000fd5b505050506040513d601f19601f8201168201806040525081019061051e91906109d7565b5050509150506402540be400816105359190610890565b9250505090565b8280548282559060005260206000209081019282156105b5579160200282015b828111156105b45782518260006101000a81548173ffffffffffffffffffffffffffffffffffffffff021916908373ffffffffffffffffffffffffffffffffffffffff1602179055509160200191906001019061055c565b5b5090506105c291906105c6565b5090565b5b808211156105df5760008160009055506001016105c7565b5090565b6000819050919050565b6105f6816105e3565b82525050565b600060208201905061061160008301846105ed565b92915050565b600073ffffffffffffffffffffffffffffffffffffffff82169050919050565b600061064282610617565b9050919050565b61065281610637565b82525050565b600060208201905061066d6000830184610649565b92915050565b600080fd5b610681816105e3565b811461068c57600080fd5b50565b60008135905061069e81610678565b92915050565b6000602082840312156106ba576106b9610673565b5b60006106c88482850161068f565b91505092915050565b7f4e487b7100000000000000000000000000000000000000000000000000000000600052603260045260246000fd5b7f4e487b7100000000000000000000000000000000000000000000000000000000600052601160045260246000fd5b600061073a826105e3565b91507fffffffffffffffffffffffffffffffffffffffffffffffffffffffffffffffff82141561076d5761076c610700565b5b600182019050919050565b7f4e487b7100000000000000000000000000000000000000000000000000000000600052604160045260246000fd5b600082825260208201905092915050565b7f53656e64204661696c6564000000000000000000000000000000000000000000600082015250565b60006107ee600b836107a7565b91506107f9826107b8565b602082019050919050565b6000602082019050818103600083015261081d816107e1565b9050919050565b7f416d6f756e742073656e74206973206e6f7420656e6f75676800000000000000600082015250565b600061085a6019836107a7565b915061086582610824565b602082019050919050565b600060208201905081810360008301526108898161084d565b9050919050565b600061089b826105e3565b91506108a6836105e3565b9250817fffffffffffffffffffffffffffffffffffffffffffffffffffffffffffffffff04831182151516156108df576108de610700565b5b828202905092915050565b7f4e487b7100000000000000000000000000000000000000000000000000000000600052601260045260246000fd5b6000610924826105e3565b915061092f836105e3565b92508261093f5761093e6108ea565b5b828204905092915050565b600069ffffffffffffffffffff82169050919050565b6109698161094a565b811461097457600080fd5b50565b60008151905061098681610960565b92915050565b6000819050919050565b61099f8161098c565b81146109aa57600080fd5b50565b6000815190506109bc81610996565b92915050565b6000815190506109d181610678565b92915050565b600080600080600060a086880312156109f3576109f2610673565b5b6000610a0188828901610977565b9550506020610a12888289016109ad565b9450506040610a23888289016109c2565b9350506060610a34888289016109c2565b9250506080610a4588828901610977565b915050929550929590935056fea26469706673582212208780552f3b15da77f57dabe78bc5c523a7fb4a6c052f5cd882df5536993f277964736f6c63430008080033",
  "linkReferences": {},
  "deployedLinkReferences": {}
}