{
  "_format": "hh-sol-artifact-1",
  "contractName": "FundMe",
  "sourceName": "contracts/FundMe.sol",
  "abi": [
    {
      "inputs": [],
      "stateMutability": "nonpayable",
      "type": "constructor"
    },
    {
      "inputs": [],
      "name": "fund",
      "outputs": [],
      "stateMutability": "payable",
      "type": "function"
    },
    {
      "inputs": [
        {
          "internalType": "uint256",
          "name": "",
          "type": "uint256"
        }
      ],
      "name": "funders",
      "outputs": [
        {
          "internalType": "address",
          "name": "",
          "type": "address"
        }
      ],
      "stateMutability": "view",
      "type": "function"
    },
    {
      "inputs": [],
      "name": "minimumUSD",
      "outputs": [
        {
          "internalType": "uint256",
          "name": "",
          "type": "uint256"
        }
      ],
      "stateMutability": "view",
      "type": "function"
    },
    {
      "inputs": [],
      "name": "owner",
      "outputs": [
        {
          "internalType": "address",
          "name": "",
          "type": "address"
        }
      ],
      "stateMutability": "view",
      "type": "function"
    },
    {
      "inputs": [],
      "name": "withdraw",
      "outputs": [],
      "stateMutability": "nonpayable",
      "type": "function"
    }
  ],
  "bytecode": "0x60806040526802b5e3af16b188000060015534801561001d57600080fd5b50336000806101000a81548173ffffffffffffffffffffffffffffffffffffffff021916908373ffffffffffffffffffffffffffffffffffffffff160217905550610a7b8061006d6000396000f3fe60806040526004361061004a5760003560e01c80633430a88c1461004f5780633ccfd60b1461007a5780638da5cb5b14610091578063b60d4288146100bc578063dc0d3dff146100c6575b600080fd5b34801561005b57600080fd5b50610064610103565b60405161007191906105ef565b60405180910390f35b34801561008657600080fd5b5061008f610109565b005b34801561009d57600080fd5b506100a66102ea565b6040516100b3919061064b565b60405180910390f35b6100c461030e565b005b3480156100d257600080fd5b506100ed60048036038101906100e89190610697565b610404565b6040516100fa919061064b565b60405180910390f35b60015481565b3373ffffffffffffffffffffffffffffffffffffffff1660008054906101000a900473ffffffffffffffffffffffffffffffffffffffff1673ffffffffffffffffffffffffffffffffffffffff161461016157600080fd5b60005b60028054905081101561020d57600060028281548110610187576101866106c4565b5b9060005260206000200160009054906101000a900473ffffffffffffffffffffffffffffffffffffffff1690506000600360008373ffffffffffffffffffffffffffffffffffffffff1673ffffffffffffffffffffffffffffffffffffffff1681526020019081526020016000208190555050808061020590610722565b915050610164565b50600067ffffffffffffffff8111156102295761022861076b565b5b6040519080825280602002602001820160405280156102575781602001602082028036833780820191505090505b506002908051906020019061026d92919061052f565b5060003373ffffffffffffffffffffffffffffffffffffffff166108fc479081150290604051600060405180830381858888f193505050509050806102e7576040517f08c379a00000000000000000000000000000000000000000000000000000000081526004016102de906107f7565b60405180910390fd5b50565b60008054906101000a900473ffffffffffffffffffffffffffffffffffffffff1681565b60015461031a34610443565b101561035b576040517f08c379a000000000000000000000000000000000000000000000000000000000815260040161035290610863565b60405180910390fd5b6002339080600181540180825580915050600190039060005260206000200160009091909190916101000a81548173ffffffffffffffffffffffffffffffffffffffff021916908373ffffffffffffffffffffffffffffffffffffffff16021790555034600360003373ffffffffffffffffffffffffffffffffffffffff1673ffffffffffffffffffffffffffffffffffffffff16815260200190815260200160002081905550565b6002818154811061041457600080fd5b906000526020600020016000915054906101000a900473ffffffffffffffffffffffffffffffffffffffff1681565b60008061044e610477565b9050670de0b6b3a764000083826104659190610883565b61046f919061090c565b915050919050565b600080730715a7794a1dc8e42615f059dd6e406a6594651a905060008173ffffffffffffffffffffffffffffffffffffffff1663feaf968c6040518163ffffffff1660e01b815260040160a06040518083038186803b1580156104d957600080fd5b505afa1580156104ed573d6000803e3d6000fd5b505050506040513d601f19601f8201168201806040525081019061051191906109ca565b5050509150506402540be400816105289190610883565b9250505090565b8280548282559060005260206000209081019282156105a8579160200282015b828111156105a75782518260006101000a81548173ffffffffffffffffffffffffffffffffffffffff021916908373ffffffffffffffffffffffffffffffffffffffff1602179055509160200191906001019061054f565b5b5090506105b591906105b9565b5090565b5b808211156105d25760008160009055506001016105ba565b5090565b6000819050919050565b6105e9816105d6565b82525050565b600060208201905061060460008301846105e0565b92915050565b600073ffffffffffffffffffffffffffffffffffffffff82169050919050565b60006106358261060a565b9050919050565b6106458161062a565b82525050565b6000602082019050610660600083018461063c565b92915050565b600080fd5b610674816105d6565b811461067f57600080fd5b50565b6000813590506106918161066b565b92915050565b6000602082840312156106ad576106ac610666565b5b60006106bb84828501610682565b91505092915050565b7f4e487b7100000000000000000000000000000000000000000000000000000000600052603260045260246000fd5b7f4e487b7100000000000000000000000000000000000000000000000000000000600052601160045260246000fd5b600061072d826105d6565b91507fffffffffffffffffffffffffffffffffffffffffffffffffffffffffffffffff8214156107605761075f6106f3565b5b600182019050919050565b7f4e487b7100000000000000000000000000000000000000000000000000000000600052604160045260246000fd5b600082825260208201905092915050565b7f53656e64204661696c6564000000000000000000000000000000000000000000600082015250565b60006107e1600b8361079a565b91506107ec826107ab565b602082019050919050565b60006020820190508181036000830152610810816107d4565b9050919050565b7f416d6f756e742073656e74206973206e6f7420656e6f75676800000000000000600082015250565b600061084d60198361079a565b915061085882610817565b602082019050919050565b6000602082019050818103600083015261087c81610840565b9050919050565b600061088e826105d6565b9150610899836105d6565b9250817fffffffffffffffffffffffffffffffffffffffffffffffffffffffffffffffff04831182151516156108d2576108d16106f3565b5b828202905092915050565b7f4e487b7100000000000000000000000000000000000000000000000000000000600052601260045260246000fd5b6000610917826105d6565b9150610922836105d6565b925082610932576109316108dd565b5b828204905092915050565b600069ffffffffffffffffffff82169050919050565b61095c8161093d565b811461096757600080fd5b50565b60008151905061097981610953565b92915050565b6000819050919050565b6109928161097f565b811461099d57600080fd5b50565b6000815190506109af81610989565b92915050565b6000815190506109c48161066b565b92915050565b600080600080600060a086880312156109e6576109e5610666565b5b60006109f48882890161096a565b9550506020610a05888289016109a0565b9450506040610a16888289016109b5565b9350506060610a27888289016109b5565b9250506080610a388882890161096a565b915050929550929590935056fea2646970667358221220bbdcfeb22cd179b3498d54deba62faac3d658513e86d8b5a851f7aa9ffa2b4bf64736f6c63430008080033",
  "linkReferences": {},
  "deployedLinkReferences": {}
}