{"contracts/Math.sol":{"Math":{"abi":[{"inputs":[],"stateMutability":"nonpayable","type":"constructor"},{"anonymous":false,"inputs":[{"indexed":false,"internalType":"uint256","name":"firstNo","type":"uint256"},{"indexed":false,"internalType":"uint256","name":"secondNo","type":"uint256"},{"indexed":false,"internalType":"uint256","name":"results","type":"uint256"}],"name":"addNumbers","type":"event"},{"inputs":[{"internalType":"uint256","name":"a","type":"uint256"},{"internalType":"uint256","name":"b","type":"uint256"}],"name":"add","outputs":[{"internalType":"uint256","name":"","type":"uint256"}],"stateMutability":"nonpayable","type":"function"},{"inputs":[],"name":"owner","outputs":[{"internalType":"address","name":"","type":"address"}],"stateMutability":"view","type":"function"}],"evm":{"bytecode":{"linkReferences":{},"object":"608060405234801561001057600080fd5b5033600160006101000a81548173ffffffffffffffffffffffffffffffffffffffff021916908373ffffffffffffffffffffffffffffffffffffffff1602179055506102fe806100616000396000f3fe608060405234801561001057600080fd5b50600436106100365760003560e01c8063771602f71461003b5780638da5cb5b1461006b575b600080fd5b61005560048036038101906100509190610146565b610089565b6040516100629190610195565b60405180910390f35b6100736100e5565b60405161008091906101f1565b60405180910390f35b60008183610097919061023b565b6000819055507ff1740222bef33175bb191359844f4a38f66967c791d032488a025c86a806c6fe83836000546040516100d293929190610291565b60405180910390a1600054905092915050565b600160009054906101000a900473ffffffffffffffffffffffffffffffffffffffff1681565b600080fd5b6000819050919050565b61012381610110565b811461012e57600080fd5b50565b6000813590506101408161011a565b92915050565b6000806040838503121561015d5761015c61010b565b5b600061016b85828601610131565b925050602061017c85828601610131565b9150509250929050565b61018f81610110565b82525050565b60006020820190506101aa6000830184610186565b92915050565b600073ffffffffffffffffffffffffffffffffffffffff82169050919050565b60006101db826101b0565b9050919050565b6101eb816101d0565b82525050565b600060208201905061020660008301846101e2565b92915050565b7f4e487b7100000000000000000000000000000000000000000000000000000000600052601160045260246000fd5b600061024682610110565b915061025183610110565b9250827fffffffffffffffffffffffffffffffffffffffffffffffffffffffffffffffff038211156102865761028561020c565b5b828201905092915050565b60006060820190506102a66000830186610186565b6102b36020830185610186565b6102c06040830184610186565b94935050505056fea2646970667358221220fc5673a8890488015761d3e1490ab7bd6858f83ebdf85d663f9ea3df7e0b8fbb64736f6c63430008080033","opcodes":"PUSH1 0x80 PUSH1 0x40 MSTORE CALLVALUE DUP1 ISZERO PUSH2 0x10 JUMPI PUSH1 0x0 DUP1 REVERT JUMPDEST POP CALLER PUSH1 0x1 PUSH1 0x0 PUSH2 0x100 EXP DUP2 SLOAD DUP2 PUSH20 0xFFFFFFFFFFFFFFFFFFFFFFFFFFFFFFFFFFFFFFFF MUL NOT AND SWAP1 DUP4 PUSH20 0xFFFFFFFFFFFFFFFFFFFFFFFFFFFFFFFFFFFFFFFF AND MUL OR SWAP1 SSTORE POP PUSH2 0x2FE DUP1 PUSH2 0x61 PUSH1 0x0 CODECOPY PUSH1 0x0 RETURN INVALID PUSH1 0x80 PUSH1 0x40 MSTORE CALLVALUE DUP1 ISZERO PUSH2 0x10 JUMPI PUSH1 0x0 DUP1 REVERT JUMPDEST POP PUSH1 0x4 CALLDATASIZE LT PUSH2 0x36 JUMPI PUSH1 0x0 CALLDATALOAD PUSH1 0xE0 SHR DUP1 PUSH4 0x771602F7 EQ PUSH2 0x3B JUMPI DUP1 PUSH4 0x8DA5CB5B EQ PUSH2 0x6B JUMPI JUMPDEST PUSH1 0x0 DUP1 REVERT JUMPDEST PUSH2 0x55 PUSH1 0x4 DUP1 CALLDATASIZE SUB DUP2 ADD SWAP1 PUSH2 0x50 SWAP2 SWAP1 PUSH2 0x146 JUMP JUMPDEST PUSH2 0x89 JUMP JUMPDEST PUSH1 0x40 MLOAD PUSH2 0x62 SWAP2 SWAP1 PUSH2 0x195 JUMP JUMPDEST PUSH1 0x40 MLOAD DUP1 SWAP2 SUB SWAP1 RETURN JUMPDEST PUSH2 0x73 PUSH2 0xE5 JUMP JUMPDEST PUSH1 0x40 MLOAD PUSH2 0x80 SWAP2 SWAP1 PUSH2 0x1F1 JUMP JUMPDEST PUSH1 0x40 MLOAD DUP1 SWAP2 SUB SWAP1 RETURN JUMPDEST PUSH1 0x0 DUP2 DUP4 PUSH2 0x97 SWAP2 SWAP1 PUSH2 0x23B JUMP JUMPDEST PUSH1 0x0 DUP2 SWAP1 SSTORE POP PUSH32 0xF1740222BEF33175BB191359844F4A38F66967C791D032488A025C86A806C6FE DUP4 DUP4 PUSH1 0x0 SLOAD PUSH1 0x40 MLOAD PUSH2 0xD2 SWAP4 SWAP3 SWAP2 SWAP1 PUSH2 0x291 JUMP JUMPDEST PUSH1 0x40 MLOAD DUP1 SWAP2 SUB SWAP1 LOG1 PUSH1 0x0 SLOAD SWAP1 POP SWAP3 SWAP2 POP POP JUMP JUMPDEST PUSH1 0x1 PUSH1 0x0 SWAP1 SLOAD SWAP1 PUSH2 0x100 EXP SWAP1 DIV PUSH20 0xFFFFFFFFFFFFFFFFFFFFFFFFFFFFFFFFFFFFFFFF AND DUP2 JUMP JUMPDEST PUSH1 0x0 DUP1 REVERT JUMPDEST PUSH1 0x0 DUP2 SWAP1 POP SWAP2 SWAP1 POP JUMP JUMPDEST PUSH2 0x123 DUP2 PUSH2 0x110 JUMP JUMPDEST DUP2 EQ PUSH2 0x12E JUMPI PUSH1 0x0 DUP1 REVERT JUMPDEST POP JUMP JUMPDEST PUSH1 0x0 DUP2 CALLDATALOAD SWAP1 POP PUSH2 0x140 DUP2 PUSH2 0x11A JUMP JUMPDEST SWAP3 SWAP2 POP POP JUMP JUMPDEST PUSH1 0x0 DUP1 PUSH1 0x40 DUP4 DUP6 SUB SLT ISZERO PUSH2 0x15D JUMPI PUSH2 0x15C PUSH2 0x10B JUMP JUMPDEST JUMPDEST PUSH1 0x0 PUSH2 0x16B DUP6 DUP3 DUP7 ADD PUSH2 0x131 JUMP JUMPDEST SWAP3 POP POP PUSH1 0x20 PUSH2 0x17C DUP6 DUP3 DUP7 ADD PUSH2 0x131 JUMP JUMPDEST SWAP2 POP POP SWAP3 POP SWAP3 SWAP1 POP JUMP JUMPDEST PUSH2 0x18F DUP2 PUSH2 0x110 JUMP JUMPDEST DUP3 MSTORE POP POP JUMP JUMPDEST PUSH1 0x0 PUSH1 0x20 DUP3 ADD SWAP1 POP PUSH2 0x1AA PUSH1 0x0 DUP4 ADD DUP5 PUSH2 0x186 JUMP JUMPDEST SWAP3 SWAP2 POP POP JUMP JUMPDEST PUSH1 0x0 PUSH20 0xFFFFFFFFFFFFFFFFFFFFFFFFFFFFFFFFFFFFFFFF DUP3 AND SWAP1 POP SWAP2 SWAP1 POP JUMP JUMPDEST PUSH1 0x0 PUSH2 0x1DB DUP3 PUSH2 0x1B0 JUMP JUMPDEST SWAP1 POP SWAP2 SWAP1 POP JUMP JUMPDEST PUSH2 0x1EB DUP2 PUSH2 0x1D0 JUMP JUMPDEST DUP3 MSTORE POP POP JUMP JUMPDEST PUSH1 0x0 PUSH1 0x20 DUP3 ADD SWAP1 POP PUSH2 0x206 PUSH1 0x0 DUP4 ADD DUP5 PUSH2 0x1E2 JUMP JUMPDEST SWAP3 SWAP2 POP POP JUMP JUMPDEST PUSH32 0x4E487B7100000000000000000000000000000000000000000000000000000000 PUSH1 0x0 MSTORE PUSH1 0x11 PUSH1 0x4 MSTORE PUSH1 0x24 PUSH1 0x0 REVERT JUMPDEST PUSH1 0x0 PUSH2 0x246 DUP3 PUSH2 0x110 JUMP JUMPDEST SWAP2 POP PUSH2 0x251 DUP4 PUSH2 0x110 JUMP JUMPDEST SWAP3 POP DUP3 PUSH32 0xFFFFFFFFFFFFFFFFFFFFFFFFFFFFFFFFFFFFFFFFFFFFFFFFFFFFFFFFFFFFFFFF SUB DUP3 GT ISZERO PUSH2 0x286 JUMPI PUSH2 0x285 PUSH2 0x20C JUMP JUMPDEST JUMPDEST DUP3 DUP3 ADD SWAP1 POP SWAP3 SWAP2 POP POP JUMP JUMPDEST PUSH1 0x0 PUSH1 0x60 DUP3 ADD SWAP1 POP PUSH2 0x2A6 PUSH1 0x0 DUP4 ADD DUP7 PUSH2 0x186 JUMP JUMPDEST PUSH2 0x2B3 PUSH1 0x20 DUP4 ADD DUP6 PUSH2 0x186 JUMP JUMPDEST PUSH2 0x2C0 PUSH1 0x40 DUP4 ADD DUP5 PUSH2 0x186 JUMP JUMPDEST SWAP5 SWAP4 POP POP POP POP JUMP INVALID LOG2 PUSH5 0x6970667358 0x22 SLT KECCAK256 0xFC JUMP PUSH20 0xA8890488015761D3E1490AB7BD6858F83EBDF85D PUSH7 0x3F9EA3DF7E0B8F 0xBB PUSH5 0x736F6C6343 STOP ADDMOD ADDMOD STOP CALLER "},"methodIdentifiers":{"add(uint256,uint256)":"771602f7","owner()":"8da5cb5b"}}}}}