{
  "_format": "hh-sol-artifact-1",
  "contractName": "FundMe",
  "sourceName": "contracts/FundMe.sol",
  "abi": [
    {
      "inputs": [],
      "stateMutability": "nonpayable",
      "type": "constructor"
    },
    {
      "stateMutability": "payable",
      "type": "fallback"
    },
    {
      "inputs": [],
      "name": "MINIMUM_USD",
      "outputs": [
        {
          "internalType": "uint256",
          "name": "",
          "type": "uint256"
        }
      ],
      "stateMutability": "view",
      "type": "function"
    },
    {
      "inputs": [],
      "name": "fund",
      "outputs": [],
      "stateMutability": "payable",
      "type": "function"
    },
    {
      "inputs": [
        {
          "internalType": "uint256",
          "name": "",
          "type": "uint256"
        }
      ],
      "name": "funders",
      "outputs": [
        {
          "internalType": "address",
          "name": "",
          "type": "address"
        }
      ],
      "stateMutability": "view",
      "type": "function"
    },
    {
      "inputs": [],
      "name": "i_owner",
      "outputs": [
        {
          "internalType": "address",
          "name": "",
          "type": "address"
        }
      ],
      "stateMutability": "view",
      "type": "function"
    },
    {
      "inputs": [],
      "name": "withdraw",
      "outputs": [],
      "stateMutability": "nonpayable",
      "type": "function"
    },
    {
      "stateMutability": "payable",
      "type": "receive"
    }
  ],
  "bytecode": "0x60a060405234801561001057600080fd5b503373ffffffffffffffffffffffffffffffffffffffff1660808173ffffffffffffffffffffffffffffffffffffffff1660601b8152505060805160601c610aa061006d6000396000818161023101526104070152610aa06000f3fe60806040526004361061004e5760003560e01c80633ccfd60b146100675780636b69a5921461007e578063b60d4288146100a9578063dba6335f146100b3578063dc0d3dff146100de5761005d565b3661005d5761005b61011b565b005b61006561011b565b005b34801561007357600080fd5b5061007c610218565b005b34801561008a57600080fd5b506100936103f8565b6040516100a09190610614565b60405180910390f35b6100b161011b565b005b3480156100bf57600080fd5b506100c8610405565b6040516100d59190610670565b60405180910390f35b3480156100ea57600080fd5b50610105600480360381019061010091906106bc565b610429565b6040516101129190610670565b60405180910390f35b6802b5e3af16b188000061012e34610468565b101561016f576040517f08c379a000000000000000000000000000000000000000000000000000000000815260040161016690610746565b60405180910390fd5b6000339080600181540180825580915050600190039060005260206000200160009091909190916101000a81548173ffffffffffffffffffffffffffffffffffffffff021916908373ffffffffffffffffffffffffffffffffffffffff16021790555034600160003373ffffffffffffffffffffffffffffffffffffffff1673ffffffffffffffffffffffffffffffffffffffff16815260200190815260200160002081905550565b3373ffffffffffffffffffffffffffffffffffffffff167f000000000000000000000000000000000000000000000000000000000000000073ffffffffffffffffffffffffffffffffffffffff161461027057600080fd5b60005b60008054905081101561031b57600080828154811061029557610294610766565b5b9060005260206000200160009054906101000a900473ffffffffffffffffffffffffffffffffffffffff1690506000600160008373ffffffffffffffffffffffffffffffffffffffff1673ffffffffffffffffffffffffffffffffffffffff16815260200190815260200160002081905550508080610313906107c4565b915050610273565b50600067ffffffffffffffff8111156103375761033661080d565b5b6040519080825280602002602001820160405280156103655781602001602082028036833780820191505090505b506000908051906020019061037b929190610554565b5060003373ffffffffffffffffffffffffffffffffffffffff166108fc479081150290604051600060405180830381858888f193505050509050806103f5576040517f08c379a00000000000000000000000000000000000000000000000000000000081526004016103ec90610888565b60405180910390fd5b50565b6802b5e3af16b188000081565b7f000000000000000000000000000000000000000000000000000000000000000081565b6000818154811061043957600080fd5b906000526020600020016000915054906101000a900473ffffffffffffffffffffffffffffffffffffffff1681565b60008061047361049c565b9050670de0b6b3a7640000838261048a91906108a8565b6104949190610931565b915050919050565b600080730715a7794a1dc8e42615f059dd6e406a6594651a905060008173ffffffffffffffffffffffffffffffffffffffff1663feaf968c6040518163ffffffff1660e01b815260040160a06040518083038186803b1580156104fe57600080fd5b505afa158015610512573d6000803e3d6000fd5b505050506040513d601f19601f8201168201806040525081019061053691906109ef565b5050509150506402540be4008161054d91906108a8565b9250505090565b8280548282559060005260206000209081019282156105cd579160200282015b828111156105cc5782518260006101000a81548173ffffffffffffffffffffffffffffffffffffffff021916908373ffffffffffffffffffffffffffffffffffffffff16021790555091602001919060010190610574565b5b5090506105da91906105de565b5090565b5b808211156105f75760008160009055506001016105df565b5090565b6000819050919050565b61060e816105fb565b82525050565b60006020820190506106296000830184610605565b92915050565b600073ffffffffffffffffffffffffffffffffffffffff82169050919050565b600061065a8261062f565b9050919050565b61066a8161064f565b82525050565b60006020820190506106856000830184610661565b92915050565b600080fd5b610699816105fb565b81146106a457600080fd5b50565b6000813590506106b681610690565b92915050565b6000602082840312156106d2576106d161068b565b5b60006106e0848285016106a7565b91505092915050565b600082825260208201905092915050565b7f416d6f756e742073656e74206973206e6f7420656e6f75676800000000000000600082015250565b60006107306019836106e9565b915061073b826106fa565b602082019050919050565b6000602082019050818103600083015261075f81610723565b9050919050565b7f4e487b7100000000000000000000000000000000000000000000000000000000600052603260045260246000fd5b7f4e487b7100000000000000000000000000000000000000000000000000000000600052601160045260246000fd5b60006107cf826105fb565b91507fffffffffffffffffffffffffffffffffffffffffffffffffffffffffffffffff82141561080257610801610795565b5b600182019050919050565b7f4e487b7100000000000000000000000000000000000000000000000000000000600052604160045260246000fd5b7f53656e64204661696c6564000000000000000000000000000000000000000000600082015250565b6000610872600b836106e9565b915061087d8261083c565b602082019050919050565b600060208201905081810360008301526108a181610865565b9050919050565b60006108b3826105fb565b91506108be836105fb565b9250817fffffffffffffffffffffffffffffffffffffffffffffffffffffffffffffffff04831182151516156108f7576108f6610795565b5b828202905092915050565b7f4e487b7100000000000000000000000000000000000000000000000000000000600052601260045260246000fd5b600061093c826105fb565b9150610947836105fb565b92508261095757610956610902565b5b828204905092915050565b600069ffffffffffffffffffff82169050919050565b61098181610962565b811461098c57600080fd5b50565b60008151905061099e81610978565b92915050565b6000819050919050565b6109b7816109a4565b81146109c257600080fd5b50565b6000815190506109d4816109ae565b92915050565b6000815190506109e981610690565b92915050565b600080600080600060a08688031215610a0b57610a0a61068b565b5b6000610a198882890161098f565b9550506020610a2a888289016109c5565b9450506040610a3b888289016109da565b9350506060610a4c888289016109da565b9250506080610a5d8882890161098f565b915050929550929590935056fea264697066735822122013f91b747fb004f33485d563a1c3246784d72c28c0cc6830ba8e1257c62a102564736f6c63430008080033",
  "linkReferences": {},
  "deployedLinkReferences": {}
}