{
  "_format": "hh-sol-artifact-1",
  "contractName": "Math",
  "sourceName": "contracts/Math.sol",
  "abi": [
    {
      "inputs": [],
      "stateMutability": "nonpayable",
      "type": "constructor"
    },
    {
      "anonymous": false,
      "inputs": [
        {
          "indexed": false,
          "internalType": "uint256",
          "name": "firstNo",
          "type": "uint256"
        },
        {
          "indexed": false,
          "internalType": "uint256",
          "name": "secondNo",
          "type": "uint256"
        },
        {
          "indexed": false,
          "internalType": "uint256",
          "name": "results",
          "type": "uint256"
        }
      ],
      "name": "addNumbers",
      "type": "event"
    },
    {
      "inputs": [
        {
          "internalType": "uint256",
          "name": "a",
          "type": "uint256"
        },
        {
          "internalType": "uint256",
          "name": "b",
          "type": "uint256"
        }
      ],
      "name": "add",
      "outputs": [
        {
          "internalType": "string",
          "name": "",
          "type": "string"
        }
      ],
      "stateMutability": "nonpayable",
      "type": "function"
    },
    {
      "inputs": [],
      "name": "owner",
      "outputs": [
        {
          "internalType": "address",
          "name": "",
          "type": "address"
        }
      ],
      "stateMutability": "view",
      "type": "function"
    }
  ],
  "bytecode": "0x608060405234801561001057600080fd5b5033600160006101000a81548173ffffffffffffffffffffffffffffffffffffffff021916908373ffffffffffffffffffffffffffffffffffffffff1602179055506106b2806100616000396000f3fe608060405234801561001057600080fd5b50600436106100365760003560e01c8063771602f71461003b5780638da5cb5b1461006b575b600080fd5b610055600480360381019061005091906102d5565b610089565b6040516100629190610383565b60405180910390f35b6100736100ed565b6040516100809190610368565b60405180910390f35b60608183610097919061047f565b6000819055507ff1740222bef33175bb191359844f4a38f66967c791d032488a025c86a806c6fe83836000546040516100d2939291906103a5565b60405180910390a16100e5600054610113565b905092915050565b600160009054906101000a900473ffffffffffffffffffffffffffffffffffffffff1681565b6060600082141561015b576040518060400160405280600181526020017f300000000000000000000000000000000000000000000000000000000000000081525090506102bb565b600082905060005b6000821461018d5780806101769061057c565b915050600a82610186919061044e565b9150610163565b60008167ffffffffffffffff8111156101cf577f4e487b7100000000000000000000000000000000000000000000000000000000600052604160045260246000fd5b6040519080825280601f01601f1916602001820160405280156102015781602001600182028036833780820191505090505b5090505b600085146102b45760018261021a91906104d9565b9150600a8561022991906105c5565b603061023591906103f8565b60f81b818381518110610271577f4e487b7100000000000000000000000000000000000000000000000000000000600052603260045260246000fd5b60200101907effffffffffffffffffffffffffffffffffffffffffffffffffffffffffffff1916908160001a905350600a856102ad919061044e565b9450610205565b8093505050505b919050565b6000813590506102cf81610665565b92915050565b600080604083850312156102e857600080fd5b60006102f6858286016102c0565b9250506020610307858286016102c0565b9150509250929050565b61031a8161050d565b82525050565b600061032b826103dc565b61033581856103e7565b9350610345818560208601610549565b61034e81610654565b840191505092915050565b6103628161053f565b82525050565b600060208201905061037d6000830184610311565b92915050565b6000602082019050818103600083015261039d8184610320565b905092915050565b60006060820190506103ba6000830186610359565b6103c76020830185610359565b6103d46040830184610359565b949350505050565b600081519050919050565b600082825260208201905092915050565b60006104038261053f565b915061040e8361053f565b9250827fffffffffffffffffffffffffffffffffffffffffffffffffffffffffffffffff03821115610443576104426105f6565b5b828201905092915050565b60006104598261053f565b91506104648361053f565b92508261047457610473610625565b5b828204905092915050565b600061048a8261053f565b91506104958361053f565b9250817fffffffffffffffffffffffffffffffffffffffffffffffffffffffffffffffff04831182151516156104ce576104cd6105f6565b5b828202905092915050565b60006104e48261053f565b91506104ef8361053f565b925082821015610502576105016105f6565b5b828203905092915050565b60006105188261051f565b9050919050565b600073ffffffffffffffffffffffffffffffffffffffff82169050919050565b6000819050919050565b60005b8381101561056757808201518184015260208101905061054c565b83811115610576576000848401525b50505050565b60006105878261053f565b91507fffffffffffffffffffffffffffffffffffffffffffffffffffffffffffffffff8214156105ba576105b96105f6565b5b600182019050919050565b60006105d08261053f565b91506105db8361053f565b9250826105eb576105ea610625565b5b828206905092915050565b7f4e487b7100000000000000000000000000000000000000000000000000000000600052601160045260246000fd5b7f4e487b7100000000000000000000000000000000000000000000000000000000600052601260045260246000fd5b6000601f19601f8301169050919050565b61066e8161053f565b811461067957600080fd5b5056fea2646970667358221220d684d9ae8fe7ff59476b7c5820177f1842777c9f95f32db5cca65509d854dea864736f6c63430008000033",
  "linkReferences": {},
  "deployedLinkReferences": {}
}