{
  "_format": "hh-sol-artifact-1",
  "contractName": "Math",
  "sourceName": "contracts/Math.sol",
  "abi": [
    {
      "inputs": [],
      "stateMutability": "nonpayable",
      "type": "constructor"
    },
    {
      "anonymous": false,
      "inputs": [
        {
          "indexed": false,
          "internalType": "uint256",
          "name": "firstNo",
          "type": "uint256"
        },
        {
          "indexed": false,
          "internalType": "uint256",
          "name": "secondNo",
          "type": "uint256"
        },
        {
          "indexed": false,
          "internalType": "uint256",
          "name": "results",
          "type": "uint256"
        }
      ],
      "name": "addNumbers",
      "type": "event"
    },
    {
      "inputs": [
        {
          "internalType": "uint256",
          "name": "a",
          "type": "uint256"
        },
        {
          "internalType": "uint256",
          "name": "b",
          "type": "uint256"
        }
      ],
      "name": "add",
      "outputs": [
        {
          "internalType": "uint256",
          "name": "",
          "type": "uint256"
        }
      ],
      "stateMutability": "nonpayable",
      "type": "function"
    },
    {
      "inputs": [],
      "name": "owner",
      "outputs": [
        {
          "internalType": "address",
          "name": "",
          "type": "address"
        }
      ],
      "stateMutability": "view",
      "type": "function"
    }
  ],
  "bytecode": "0x608060405234801561001057600080fd5b5033600160006101000a81548173ffffffffffffffffffffffffffffffffffffffff021916908373ffffffffffffffffffffffffffffffffffffffff1602179055506102fe806100616000396000f3fe608060405234801561001057600080fd5b50600436106100365760003560e01c8063771602f71461003b5780638da5cb5b1461006b575b600080fd5b61005560048036038101906100509190610146565b610089565b6040516100629190610195565b60405180910390f35b6100736100e5565b60405161008091906101f1565b60405180910390f35b60008183610097919061023b565b6000819055507ff1740222bef33175bb191359844f4a38f66967c791d032488a025c86a806c6fe83836000546040516100d293929190610291565b60405180910390a1600054905092915050565b600160009054906101000a900473ffffffffffffffffffffffffffffffffffffffff1681565b600080fd5b6000819050919050565b61012381610110565b811461012e57600080fd5b50565b6000813590506101408161011a565b92915050565b6000806040838503121561015d5761015c61010b565b5b600061016b85828601610131565b925050602061017c85828601610131565b9150509250929050565b61018f81610110565b82525050565b60006020820190506101aa6000830184610186565b92915050565b600073ffffffffffffffffffffffffffffffffffffffff82169050919050565b60006101db826101b0565b9050919050565b6101eb816101d0565b82525050565b600060208201905061020660008301846101e2565b92915050565b7f4e487b7100000000000000000000000000000000000000000000000000000000600052601160045260246000fd5b600061024682610110565b915061025183610110565b9250827fffffffffffffffffffffffffffffffffffffffffffffffffffffffffffffffff038211156102865761028561020c565b5b828201905092915050565b60006060820190506102a66000830186610186565b6102b36020830185610186565b6102c06040830184610186565b94935050505056fea2646970667358221220fc5673a8890488015761d3e1490ab7bd6858f83ebdf85d663f9ea3df7e0b8fbb64736f6c63430008080033",
  "linkReferences": {},
  "deployedLinkReferences": {}
}